{
  "contractName": "IronVest",
  "abi": [
    {
      "anonymous": false,
      "inputs": [
        {
          "indexed": true,
          "internalType": "address",
          "name": "vester",
          "type": "address"
        },
        {
          "indexed": true,
          "internalType": "uint256",
          "name": "poolId",
          "type": "uint256"
        },
        {
          "indexed": false,
          "internalType": "string",
          "name": "poolName",
          "type": "string"
        },
        {
          "indexed": false,
          "internalType": "uint256",
          "name": "startTime",
          "type": "uint256"
        },
        {
          "indexed": false,
          "internalType": "uint256",
          "name": "vestingEndTime",
          "type": "uint256"
        },
        {
          "indexed": false,
          "internalType": "address",
          "name": "tokenAddress",
          "type": "address"
        },
        {
          "indexed": false,
          "internalType": "uint256",
          "name": "totalVestedTokens",
          "type": "uint256"
        },
        {
          "indexed": false,
          "internalType": "address[]",
          "name": "usersAddresses",
          "type": "address[]"
        },
        {
          "indexed": false,
          "internalType": "uint256[]",
          "name": "usersAlloc",
          "type": "uint256[]"
        }
      ],
      "name": "AddVesting",
      "type": "event"
    },
    {
      "anonymous": false,
      "inputs": [
        {
          "indexed": true,
          "internalType": "uint256",
          "name": "poolId",
          "type": "uint256"
        },
        {
          "indexed": false,
          "internalType": "uint256",
          "name": "claimed",
          "type": "uint256"
        },
        {
          "indexed": true,
          "internalType": "address",
          "name": "beneficiary",
          "type": "address"
        },
        {
          "indexed": false,
          "internalType": "uint256",
          "name": "remaining",
          "type": "uint256"
        }
      ],
      "name": "Claim",
      "type": "event"
    },
    {
      "anonymous": false,
      "inputs": [
        {
          "indexed": true,
          "internalType": "address",
          "name": "vester",
          "type": "address"
        },
        {
          "indexed": true,
          "internalType": "uint256",
          "name": "poolId",
          "type": "uint256"
        },
        {
          "indexed": false,
          "internalType": "string",
          "name": "poolName",
          "type": "string"
        },
        {
          "indexed": false,
          "internalType": "uint256",
          "name": "vestingEndTime",
          "type": "uint256"
        },
        {
          "indexed": false,
          "internalType": "uint256",
          "name": "cliffVestingEndTime",
          "type": "uint256"
        },
        {
          "indexed": false,
          "internalType": "uint256",
          "name": "nonCliffVestingEndTime",
          "type": "uint256"
        },
        {
          "indexed": false,
          "internalType": "uint256",
          "name": "cliffPeriodEndTime",
          "type": "uint256"
        },
        {
          "indexed": false,
          "internalType": "address",
          "name": "tokenAddress",
          "type": "address"
        },
        {
          "indexed": false,
          "internalType": "uint256",
          "name": "totalVestedTokens",
          "type": "uint256"
        },
        {
          "indexed": false,
          "internalType": "address[]",
          "name": "usersAddresses",
          "type": "address[]"
        },
        {
          "indexed": false,
          "internalType": "uint256[]",
          "name": "usersAlloc",
          "type": "uint256[]"
        }
      ],
      "name": "CliffAddVesting",
      "type": "event"
    },
    {
      "anonymous": false,
      "inputs": [
        {
          "indexed": true,
          "internalType": "uint256",
          "name": "poolId",
          "type": "uint256"
        },
        {
          "indexed": false,
          "internalType": "uint256",
          "name": "claimed",
          "type": "uint256"
        },
        {
          "indexed": true,
          "internalType": "address",
          "name": "beneficiary",
          "type": "address"
        },
        {
          "indexed": false,
          "internalType": "uint256",
          "name": "remaining",
          "type": "uint256"
        }
      ],
      "name": "CliffClaim",
      "type": "event"
    },
    {
      "anonymous": false,
      "inputs": [
        {
          "indexed": false,
          "internalType": "uint8",
          "name": "version",
          "type": "uint8"
        }
      ],
      "name": "Initialized",
      "type": "event"
    },
    {
      "anonymous": false,
      "inputs": [
        {
          "indexed": true,
          "internalType": "uint256",
          "name": "poolId",
          "type": "uint256"
        },
        {
          "indexed": false,
          "internalType": "uint256",
          "name": "claimed",
          "type": "uint256"
        },
        {
          "indexed": true,
          "internalType": "address",
          "name": "beneficiary",
          "type": "address"
        },
        {
          "indexed": false,
          "internalType": "uint256",
          "name": "remaining",
          "type": "uint256"
        }
      ],
      "name": "NonCliffClaim",
      "type": "event"
    },
    {
      "anonymous": false,
      "inputs": [
        {
          "indexed": true,
          "internalType": "bytes32",
          "name": "role",
          "type": "bytes32"
        },
        {
          "indexed": true,
          "internalType": "bytes32",
          "name": "previousAdminRole",
          "type": "bytes32"
        },
        {
          "indexed": true,
          "internalType": "bytes32",
          "name": "newAdminRole",
          "type": "bytes32"
        }
      ],
      "name": "RoleAdminChanged",
      "type": "event"
    },
    {
      "anonymous": false,
      "inputs": [
        {
          "indexed": true,
          "internalType": "bytes32",
          "name": "role",
          "type": "bytes32"
        },
        {
          "indexed": true,
          "internalType": "address",
          "name": "account",
          "type": "address"
        },
        {
          "indexed": true,
          "internalType": "address",
          "name": "sender",
          "type": "address"
        }
      ],
      "name": "RoleGranted",
      "type": "event"
    },
    {
      "anonymous": false,
      "inputs": [
        {
          "indexed": true,
          "internalType": "bytes32",
          "name": "role",
          "type": "bytes32"
        },
        {
          "indexed": true,
          "internalType": "address",
          "name": "account",
          "type": "address"
        },
        {
          "indexed": true,
          "internalType": "address",
          "name": "sender",
          "type": "address"
        }
      ],
      "name": "RoleRevoked",
      "type": "event"
    },
    {
      "inputs": [],
      "name": "DEFAULT_ADMIN_ROLE",
      "outputs": [
        {
          "internalType": "bytes32",
          "name": "",
          "type": "bytes32"
        }
      ],
      "stateMutability": "view",
      "type": "function"
    },
    {
      "inputs": [],
      "name": "VESTER_ROLE",
      "outputs": [
        {
          "internalType": "bytes32",
          "name": "",
          "type": "bytes32"
        }
      ],
      "stateMutability": "view",
      "type": "function"
    },
    {
      "inputs": [
        {
          "internalType": "string",
          "name": "_poolName",
          "type": "string"
        },
        {
          "internalType": "uint256",
          "name": "_vestingEndTime",
          "type": "uint256"
        },
        {
          "internalType": "uint256",
          "name": "_cliffVestingEndTime",
          "type": "uint256"
        },
        {
          "internalType": "uint256",
          "name": "_cliffPeriodEndTime",
          "type": "uint256"
        },
        {
          "internalType": "address",
          "name": "_tokenAddress",
          "type": "address"
        },
        {
          "internalType": "uint256",
          "name": "_cliffPercentage10000",
          "type": "uint256"
        },
        {
          "internalType": "address[]",
          "name": "_usersAddresses",
          "type": "address[]"
        },
        {
          "internalType": "uint256[]",
          "name": "_userAlloc",
          "type": "uint256[]"
        },
        {
          "internalType": "bytes",
          "name": "signature",
          "type": "bytes"
        },
        {
          "internalType": "bytes",
          "name": "_keyHash",
          "type": "bytes"
        }
      ],
      "name": "addCliffVesting",
      "outputs": [],
      "stateMutability": "nonpayable",
      "type": "function"
    },
    {
      "inputs": [
        {
          "internalType": "string",
          "name": "_poolName",
          "type": "string"
        },
        {
          "internalType": "uint256",
          "name": "_vestingEndTime",
          "type": "uint256"
        },
        {
          "internalType": "address",
          "name": "_tokenAddress",
          "type": "address"
        },
        {
          "internalType": "address[]",
          "name": "_usersAddresses",
          "type": "address[]"
        },
        {
          "internalType": "uint256[]",
          "name": "_userAlloc",
          "type": "uint256[]"
        },
        {
          "internalType": "bytes",
          "name": "signature",
          "type": "bytes"
        },
        {
          "internalType": "bytes",
          "name": "_keyHash",
          "type": "bytes"
        }
      ],
      "name": "addVesting",
      "outputs": [],
      "stateMutability": "nonpayable",
      "type": "function"
    },
    {
      "inputs": [
        {
          "internalType": "uint256",
          "name": "_poolId",
          "type": "uint256"
        }
      ],
      "name": "claim",
      "outputs": [],
      "stateMutability": "nonpayable",
      "type": "function"
    },
    {
      "inputs": [
        {
          "internalType": "uint256",
          "name": "_poolId",
          "type": "uint256"
        }
      ],
      "name": "claimCliff",
      "outputs": [],
      "stateMutability": "nonpayable",
      "type": "function"
    },
    {
      "inputs": [
        {
          "internalType": "uint256",
          "name": "_poolId",
          "type": "uint256"
        }
      ],
      "name": "claimNonCliff",
      "outputs": [],
      "stateMutability": "nonpayable",
      "type": "function"
    },
    {
      "inputs": [
        {
          "internalType": "uint256",
          "name": "_poolId",
          "type": "uint256"
        },
        {
          "internalType": "address",
          "name": "_user",
          "type": "address"
        }
      ],
      "name": "claimable",
      "outputs": [
        {
          "internalType": "uint256",
          "name": "",
          "type": "uint256"
        }
      ],
      "stateMutability": "view",
      "type": "function"
    },
    {
      "inputs": [
        {
          "internalType": "uint256",
          "name": "",
          "type": "uint256"
        }
      ],
      "name": "cliff",
      "outputs": [
        {
          "internalType": "bool",
          "name": "",
          "type": "bool"
        }
      ],
      "stateMutability": "view",
      "type": "function"
    },
    {
      "inputs": [
        {
          "internalType": "uint256",
          "name": "_poolId",
          "type": "uint256"
        },
        {
          "internalType": "address",
          "name": "_user",
          "type": "address"
        }
      ],
      "name": "cliffClaimable",
      "outputs": [
        {
          "internalType": "uint256",
          "name": "",
          "type": "uint256"
        }
      ],
      "stateMutability": "view",
      "type": "function"
    },
    {
      "inputs": [
        {
          "internalType": "bytes32",
          "name": "role",
          "type": "bytes32"
        }
      ],
      "name": "getRoleAdmin",
      "outputs": [
        {
          "internalType": "bytes32",
          "name": "",
          "type": "bytes32"
        }
      ],
      "stateMutability": "view",
      "type": "function"
    },
    {
      "inputs": [
        {
          "internalType": "bytes32",
          "name": "role",
          "type": "bytes32"
        },
        {
          "internalType": "address",
          "name": "account",
          "type": "address"
        }
      ],
      "name": "grantRole",
      "outputs": [],
      "stateMutability": "nonpayable",
      "type": "function"
    },
    {
      "inputs": [
        {
          "internalType": "bytes32",
          "name": "role",
          "type": "bytes32"
        },
        {
          "internalType": "address",
          "name": "account",
          "type": "address"
        }
      ],
      "name": "hasRole",
      "outputs": [
        {
          "internalType": "bool",
          "name": "",
          "type": "bool"
        }
      ],
      "stateMutability": "view",
      "type": "function"
    },
    {
      "inputs": [
        {
          "internalType": "string",
          "name": "_vestingName",
          "type": "string"
        },
        {
          "internalType": "address",
          "name": "_signer",
          "type": "address"
        }
      ],
      "name": "initialize",
      "outputs": [],
      "stateMutability": "nonpayable",
      "type": "function"
    },
    {
      "inputs": [
        {
          "internalType": "uint256",
          "name": "_poolId",
          "type": "uint256"
        },
        {
          "internalType": "address",
          "name": "_user",
          "type": "address"
        }
      ],
      "name": "nonCliffClaimable",
      "outputs": [
        {
          "internalType": "uint256",
          "name": "",
          "type": "uint256"
        }
      ],
      "stateMutability": "view",
      "type": "function"
    },
    {
      "inputs": [
        {
          "internalType": "uint256",
          "name": "_poolId",
          "type": "uint256"
        }
      ],
      "name": "poolInformation",
      "outputs": [
        {
          "internalType": "bool",
          "name": "isCliff",
          "type": "bool"
        },
        {
          "internalType": "string",
          "name": "poolName",
          "type": "string"
        },
        {
          "internalType": "uint256",
          "name": "startTime",
          "type": "uint256"
        },
        {
          "internalType": "uint256",
          "name": "vestingEndTime",
          "type": "uint256"
        },
        {
          "internalType": "uint256",
          "name": "cliffVestingEndTime",
          "type": "uint256"
        },
        {
          "internalType": "uint256",
          "name": "nonCliffVestingEndTime",
          "type": "uint256"
        },
        {
          "internalType": "uint256",
          "name": "cliffPeriodEndTime",
          "type": "uint256"
        },
        {
          "internalType": "address",
          "name": "tokenAddress",
          "type": "address"
        },
        {
          "internalType": "uint256",
          "name": "totalVestedTokens",
          "type": "uint256"
        },
        {
          "internalType": "uint256",
          "name": "cliffLockPercentage",
          "type": "uint256"
        }
      ],
      "stateMutability": "view",
      "type": "function"
    },
    {
      "inputs": [
        {
          "internalType": "bytes32",
          "name": "role",
          "type": "bytes32"
        },
        {
          "internalType": "address",
          "name": "account",
          "type": "address"
        }
      ],
      "name": "renounceRole",
      "outputs": [],
      "stateMutability": "nonpayable",
      "type": "function"
    },
    {
      "inputs": [
        {
          "internalType": "bytes32",
          "name": "role",
          "type": "bytes32"
        },
        {
          "internalType": "address",
          "name": "account",
          "type": "address"
        }
      ],
      "name": "revokeRole",
      "outputs": [],
      "stateMutability": "nonpayable",
      "type": "function"
    },
    {
      "inputs": [
        {
          "internalType": "address",
          "name": "_signer",
          "type": "address"
        }
      ],
      "name": "setSigner",
      "outputs": [],
      "stateMutability": "nonpayable",
      "type": "function"
    },
    {
      "inputs": [
        {
          "internalType": "bytes",
          "name": "signature",
          "type": "bytes"
        },
        {
          "internalType": "string",
          "name": "_poolName",
          "type": "string"
        },
        {
          "internalType": "address",
          "name": "_tokenAddress",
          "type": "address"
        },
        {
          "internalType": "bytes",
          "name": "_keyHash",
          "type": "bytes"
        }
      ],
      "name": "signatureVerification",
      "outputs": [
        {
          "internalType": "address",
          "name": "",
          "type": "address"
        }
      ],
      "stateMutability": "view",
      "type": "function"
    },
    {
      "inputs": [],
      "name": "signer",
      "outputs": [
        {
          "internalType": "address",
          "name": "",
          "type": "address"
        }
      ],
      "stateMutability": "view",
      "type": "function"
    },
    {
      "inputs": [
        {
          "internalType": "bytes4",
          "name": "interfaceId",
          "type": "bytes4"
        }
      ],
      "name": "supportsInterface",
      "outputs": [
        {
          "internalType": "bool",
          "name": "",
          "type": "bool"
        }
      ],
      "stateMutability": "view",
      "type": "function"
    },
    {
      "inputs": [
        {
          "internalType": "bytes32",
          "name": "",
          "type": "bytes32"
        }
      ],
      "name": "usedHashes",
      "outputs": [
        {
          "internalType": "bool",
          "name": "",
          "type": "bool"
        }
      ],
      "stateMutability": "view",
      "type": "function"
    },
    {
      "inputs": [
        {
          "internalType": "uint256",
          "name": "",
          "type": "uint256"
        },
        {
          "internalType": "address",
          "name": "",
          "type": "address"
        }
      ],
      "name": "userCliffInfo",
      "outputs": [
        {
          "internalType": "uint256",
          "name": "allocation",
          "type": "uint256"
        },
        {
          "internalType": "uint256",
          "name": "cliffAlloc",
          "type": "uint256"
        },
        {
          "internalType": "uint256",
          "name": "claimedAmnt",
          "type": "uint256"
        },
        {
          "internalType": "uint256",
          "name": "tokensReleaseTime",
          "type": "uint256"
        },
        {
          "internalType": "uint256",
          "name": "remainingToBeClaimableCliff",
          "type": "uint256"
        },
        {
          "internalType": "uint256",
          "name": "cliffReleaseRatePerSec",
          "type": "uint256"
        },
        {
          "internalType": "uint256",
          "name": "cliffLastWithdrawal",
          "type": "uint256"
        }
      ],
      "stateMutability": "view",
      "type": "function"
    },
    {
      "inputs": [
        {
          "internalType": "uint256",
          "name": "",
          "type": "uint256"
        },
        {
          "internalType": "address",
          "name": "",
          "type": "address"
        }
      ],
      "name": "userInfo",
      "outputs": [
        {
          "internalType": "uint256",
          "name": "allocation",
          "type": "uint256"
        },
        {
          "internalType": "uint256",
          "name": "claimedAmount",
          "type": "uint256"
        },
        {
          "internalType": "uint256",
          "name": "remainingToBeClaimable",
          "type": "uint256"
        },
        {
          "internalType": "uint256",
          "name": "lastWithdrawal",
          "type": "uint256"
        },
        {
          "internalType": "uint256",
          "name": "releaseRatePerSec",
          "type": "uint256"
        }
      ],
      "stateMutability": "view",
      "type": "function"
    },
    {
      "inputs": [
        {
          "internalType": "uint256",
          "name": "",
          "type": "uint256"
        },
        {
          "internalType": "address",
          "name": "",
          "type": "address"
        }
      ],
      "name": "userNonCliffInfo",
      "outputs": [
        {
          "internalType": "uint256",
          "name": "allocation",
          "type": "uint256"
        },
        {
          "internalType": "uint256",
          "name": "nonCliffAlloc",
          "type": "uint256"
        },
        {
          "internalType": "uint256",
          "name": "claimedAmnt",
          "type": "uint256"
        },
        {
          "internalType": "uint256",
          "name": "tokensReleaseTime",
          "type": "uint256"
        },
        {
          "internalType": "uint256",
          "name": "remainingToBeClaimableNonCliff",
          "type": "uint256"
        },
        {
          "internalType": "uint256",
          "name": "nonCliffReleaseRatePerSec",
          "type": "uint256"
        },
        {
          "internalType": "uint256",
          "name": "nonCliffLastWithdrawal",
          "type": "uint256"
        }
      ],
      "stateMutability": "view",
      "type": "function"
    },
    {
      "inputs": [],
      "name": "vestingContractName",
      "outputs": [
        {
          "internalType": "string",
          "name": "",
          "type": "string"
        }
      ],
      "stateMutability": "view",
      "type": "function"
    },
    {
      "inputs": [],
      "name": "vestingPoolSize",
      "outputs": [
        {
          "internalType": "uint256",
          "name": "",
          "type": "uint256"
        }
      ],
      "stateMutability": "view",
      "type": "function"
    }
  ],
  "bytecode": "0x608060405234801561001057600080fd5b50615d3280620000216000396000f3fe608060405234801561001057600080fd5b50600436106101c45760003560e01c80637ab4339d116100f9578063aef18bf711610097578063df2786ee11610071578063df2786ee14610560578063e82cd8bf1461057e578063ebb48c3b146105ae578063ef89d3fe146105e4576101c4565b8063aef18bf7146104e4578063be07b52f14610514578063d547741f14610544576101c4565b806393f1a40b116100d357806393f1a40b14610444578063a0c7f71c14610478578063a217fddf146104a8578063ae5ad227146104c6576101c4565b80637ab4339d146103dc57806391d14854146103f857806392fd33f214610428576101c4565b8063379607f5116101665780634a0bfeeb116101405780634a0bfeeb146103335780635889be46146103515780636c19e783146103875780636e50132f146103a3576101c4565b8063379607f5146102cb57806342c3cb55146102e757806348c0d66214610317576101c4565b8063248a9ca3116101a2578063248a9ca31461023357806328a9a6c2146102635780632f2ff15d1461029357806336568abe146102af576101c4565b806301ffc9a7146101c957806307ac1762146101f9578063238ac93314610215575b600080fd5b6101e360048036038101906101de91906138ba565b610600565b6040516101f09190613902565b60405180910390f35b610213600480360381019061020e9190613d23565b61067a565b005b61021d610f1f565b60405161022a9190613e9d565b60405180910390f35b61024d60048036038101906102489190613eee565b610f45565b60405161025a9190613f2a565b60405180910390f35b61027d60048036038101906102789190613f45565b610f65565b60405161028a9190613e9d565b60405180910390f35b6102ad60048036038101906102a89190614000565b61100a565b005b6102c960048036038101906102c49190614000565b61102b565b005b6102e560048036038101906102e09190614040565b6110ae565b005b61030160048036038101906102fc9190614040565b6112bf565b60405161030e9190613902565b60405180910390f35b610331600480360381019061032c919061406d565b6112df565b005b61033b61182b565b60405161034891906141aa565b60405180910390f35b61036b600480360381019061036691906141c5565b611831565b60405161037e9796959493929190614205565b60405180910390f35b6103a1600480360381019061039c9190614274565b611880565b005b6103bd60048036038101906103b89190614040565b611986565b6040516103d39a99989796959493929190614320565b60405180910390f35b6103f660048036038101906103f191906143c3565b611e8e565b005b610412600480360381019061040d9190614000565b6120d7565b60405161041f9190613902565b60405180910390f35b610442600480360381019061043d9190614040565b612142565b005b61045e600480360381019061045991906141c5565b6123ab565b60405161046f95949392919061441f565b60405180910390f35b610492600480360381019061048d91906141c5565b6123ee565b60405161049f91906141aa565b60405180910390f35b6104b0612567565b6040516104bd9190613f2a565b60405180910390f35b6104ce61256e565b6040516104db9190613f2a565b60405180910390f35b6104fe60048036038101906104f99190613eee565b612592565b60405161050b9190613902565b60405180910390f35b61052e600480360381019061052991906141c5565b6125b2565b60405161053b91906141aa565b60405180910390f35b61055e60048036038101906105599190614000565b61271f565b005b610568612740565b6040516105759190614472565b60405180910390f35b610598600480360381019061059391906141c5565b6127ce565b6040516105a591906141aa565b60405180910390f35b6105c860048036038101906105c391906141c5565b61293b565b6040516105db9796959493929190614205565b60405180910390f35b6105fe60048036038101906105f99190614040565b61298a565b005b60007f7965db0b000000000000000000000000000000000000000000000000000000007bffffffffffffffffffffffffffffffffffffffffffffffffffffffff1916827bffffffffffffffffffffffffffffffffffffffffffffffffffffffff19161480610673575061067282612bf3565b5b9050919050565b6106ab7f64ed6499e2f5a7ea55dfd56da361bf9d48064843bb3891c36f1dabd9ba2461356106a6612c5d565b6120d7565b6106ea576040517f08c379a00000000000000000000000000000000000000000000000000000000081526004016106e190614506565b60405180910390fd5b60026001540361072f576040517f08c379a000000000000000000000000000000000000000000000000000000000815260040161072690614572565b60405180910390fd5b6002600181905550428911610779576040517f08c379a000000000000000000000000000000000000000000000000000000000815260040161077090614604565b60405180910390fd5b8888106107bb576040517f08c379a00000000000000000000000000000000000000000000000000000000081526004016107b290614696565b60405180910390fd5b8688116107fd576040517f08c379a00000000000000000000000000000000000000000000000000000000081526004016107f490614728565b60405180910390fd5b42871161083f576040517f08c379a0000000000000000000000000000000000000000000000000000000008152600401610836906147ba565b60405180910390fd5b60cb60009054906101000a900473ffffffffffffffffffffffffffffffffffffffff1673ffffffffffffffffffffffffffffffffffffffff16610884838c8985610f65565b73ffffffffffffffffffffffffffffffffffffffff16146108da576040517f08c379a00000000000000000000000000000000000000000000000000000000081526004016108d190614826565b60405180910390fd5b61138885111561091f576040517f08c379a0000000000000000000000000000000000000000000000000000000008152600401610916906148b8565b60405180910390fd5b600a851015610963576040517f08c379a000000000000000000000000000000000000000000000000000000000815260040161095a9061494a565b60405180910390fd5b600087898b6109729190614999565b61097c91906149cd565b9050600080600090505b8651811015610c84576000612710898884815181106109a8576109a7614a01565b5b60200260200101516109ba9190614a30565b6109c49190614aa1565b90508682815181106109d9576109d8614a01565b5b6020026020010151836109ec91906149cd565b9250600081888481518110610a0457610a03614a01565b5b6020026020010151610a169190614999565b90506040518060e00160405280898581518110610a3657610a35614a01565b5b60200260200101518152602001838152602001600081526020018d81526020018381526020018d8f610a689190614999565b84610a739190614aa1565b81526020018d81525060d0600060ca54815260200190815260200160002060008b8681518110610aa657610aa5614a01565b5b602002602001015173ffffffffffffffffffffffffffffffffffffffff1673ffffffffffffffffffffffffffffffffffffffff168152602001908152602001600020600082015181600001556020820151816001015560408201518160020155606082015181600301556080820151816004015560a0820151816005015560c082015181600601559050506040518060e00160405280898581518110610b4f57610b4e614a01565b5b60200260200101518152602001828152602001600081526020018d81526020018281526020018d87610b819190614999565b848b8781518110610b9557610b94614a01565b5b6020026020010151610ba79190614999565b610bb19190614aa1565b81526020018d81525060d1600060ca54815260200190815260200160002060008b8681518110610be457610be3614a01565b5b602002602001015173ffffffffffffffffffffffffffffffffffffffff1673ffffffffffffffffffffffffffffffffffffffff168152602001908152602001600020600082015181600001556020820151816001015560408201518160020155606082015181600301556080820151816004015560a0820151816005015560c0820151816006015590505050508080610c7c90614ad2565b915050610986565b506040518061016001604052808d81526020014281526020018c81526020018b81526020018a8c8e610cb69190614999565b610cc091906149cd565b81526020018a81526020018973ffffffffffffffffffffffffffffffffffffffff1681526020018281526020018881526020018781526020018681525060ce600060ca5481526020019081526020016000206000820151816000019081610d279190614d26565b506020820151816001015560408201518160020155606082015181600301556080820151816004015560a0820151816005015560c08201518160060160006101000a81548173ffffffffffffffffffffffffffffffffffffffff021916908373ffffffffffffffffffffffffffffffffffffffff16021790555060e082015181600701556101008201518160080155610120820151816009019080519060200190610dd392919061375a565b5061014082015181600a019080519060200190610df19291906137e4565b50905050610e29610e00612c5d565b30838b73ffffffffffffffffffffffffffffffffffffffff16612c65909392919063ffffffff16565b600160cc600060ca54815260200190815260200160002060006101000a81548160ff021916908315150217905550600160ca54610e6691906149cd565b60ca8190555060ca54610e77612c5d565b73ffffffffffffffffffffffffffffffffffffffff167f8f48c5c87fd18c78fb2f723eb06075c3ae8c8bc0c3cdc3aedd86cc18c0b4253b8e8e8e878f8f898f8f604051610ecc99989796959493929190614f74565b60405180910390a3600160d26000610ee58f8c88612cee565b815260200190815260200160002060006101000a81548160ff02191690831515021790555050506001808190555050505050505050505050565b60cb60009054906101000a900473ffffffffffffffffffffffffffffffffffffffff1681565b600060976000838152602001908152602001600020600101549050919050565b600080610f73858585612cee565b90506000806000610f8389612d66565b92509250925060d2600085815260200190815260200160002060009054906101000a900460ff1615610fea576040517f08c379a0000000000000000000000000000000000000000000000000000000008152600401610fe190615062565b60405180910390fd5b6000610ff885838686612dce565b90508095505050505050949350505050565b61101382610f45565b61101c81612e97565b6110268383612eab565b505050565b611033612c5d565b73ffffffffffffffffffffffffffffffffffffffff168173ffffffffffffffffffffffffffffffffffffffff16146110a0576040517f08c379a0000000000000000000000000000000000000000000000000000000008152600401611097906150f4565b60405180910390fd5b6110aa8282612f8c565b5050565b6002600154036110f3576040517f08c379a00000000000000000000000000000000000000000000000000000000081526004016110ea90614572565b60405180910390fd5b6002600181905550600061110e82611109612c5d565b6123ee565b905060008111611153576040517f08c379a000000000000000000000000000000000000000000000000000000000815260040161114a90615160565b60405180910390fd5b6111bb61115e612c5d565b8260cd600086815260200190815260200160002060030160009054906101000a900473ffffffffffffffffffffffffffffffffffffffff1673ffffffffffffffffffffffffffffffffffffffff1661306e9092919063ffffffff16565b600060cf600084815260200190815260200160002060006111da612c5d565b73ffffffffffffffffffffffffffffffffffffffff1673ffffffffffffffffffffffffffffffffffffffff1681526020019081526020016000209050600082826001015461122891906149cd565b9050600081836000015461123c9190614999565b9050818360010181905550808360020181905550428360030181905550611261612c5d565b73ffffffffffffffffffffffffffffffffffffffff16857f18e22050893aa2ece2423f6a3f2c7d3468eda73cb9fb8a8b623b1f27a2fc65a986846040516112a9929190615180565b60405180910390a3505050506001808190555050565b60cc6020528060005260406000206000915054906101000a900460ff1681565b6113107f64ed6499e2f5a7ea55dfd56da361bf9d48064843bb3891c36f1dabd9ba24613561130b612c5d565b6120d7565b61134f576040517f08c379a000000000000000000000000000000000000000000000000000000000815260040161134690614506565b60405180910390fd5b600260015403611394576040517f08c379a000000000000000000000000000000000000000000000000000000000815260040161138b90614572565b60405180910390fd5b60026001819055504286116113de576040517f08c379a00000000000000000000000000000000000000000000000000000000081526004016113d5906151f5565b60405180910390fd5b60cb60009054906101000a900473ffffffffffffffffffffffffffffffffffffffff1673ffffffffffffffffffffffffffffffffffffffff1661142383898885610f65565b73ffffffffffffffffffffffffffffffffffffffff1614611479576040517f08c379a000000000000000000000000000000000000000000000000000000000815260040161147090614826565b60405180910390fd5b600080600090505b85518110156115f25784818151811061149d5761149c614a01565b5b6020026020010151826114b091906149cd565b91506040518060a001604052808683815181106114d0576114cf614a01565b5b60200260200101518152602001600081526020018683815181106114f7576114f6614a01565b5b60200260200101518152602001428152602001428a6115169190614999565b87848151811061152957611528614a01565b5b602002602001015161153b9190614aa1565b81525060cf600060ca548152602001908152602001600020600088848151811061156857611567614a01565b5b602002602001015173ffffffffffffffffffffffffffffffffffffffff1673ffffffffffffffffffffffffffffffffffffffff168152602001908152602001600020600082015181600001556020820151816001015560408201518160020155606082015181600301556080820151816004015590505080806115ea90614ad2565b915050611481565b506040518060e001604052808981526020014281526020018881526020018773ffffffffffffffffffffffffffffffffffffffff1681526020018281526020018681526020018581525060cd600060ca54815260200190815260200160002060008201518160000190816116669190614d26565b50602082015181600101556040820151816002015560608201518160030160006101000a81548173ffffffffffffffffffffffffffffffffffffffff021916908373ffffffffffffffffffffffffffffffffffffffff1602179055506080820151816004015560a08201518160050190805190602001906116e892919061375a565b5060c08201518160060190805190602001906117059291906137e4565b5090505061173d611714612c5d565b30838973ffffffffffffffffffffffffffffffffffffffff16612c65909392919063ffffffff16565b600060cc600060ca54815260200190815260200160002060006101000a81548160ff021916908315150217905550600160ca5461177a91906149cd565b60ca8190555060ca5461178b612c5d565b73ffffffffffffffffffffffffffffffffffffffff167f7e8321b3e44425b3b58a0d4c7ccc0cc834b3e0bbd7dcfe65c77ca0c4b1a62ef18a428b8b878c8c6040516117dc9796959493929190615215565b60405180910390a3600160d260006117f58b8a87612cee565b815260200190815260200160002060006101000a81548160ff021916908315150217905550506001808190555050505050505050565b60ca5481565b60d1602052816000526040600020602052806000526040600020600091509150508060000154908060010154908060020154908060030154908060040154908060050154908060060154905087565b6118946000801b61188f612c5d565b6120d7565b6118d3576040517f08c379a00000000000000000000000000000000000000000000000000000000081526004016118ca9061530b565b60405180910390fd5b600073ffffffffffffffffffffffffffffffffffffffff168173ffffffffffffffffffffffffffffffffffffffff1603611942576040517f08c379a00000000000000000000000000000000000000000000000000000000081526004016119399061539d565b60405180910390fd5b8060cb60006101000a81548173ffffffffffffffffffffffffffffffffffffffff021916908373ffffffffffffffffffffffffffffffffffffffff16021790555050565b6000606060008060008060008060008060cc60008c815260200190815260200160002060009054906101000a900460ff1615611c3c57600060ce60008d8152602001908152602001600020604051806101600160405290816000820180546119ed90614b49565b80601f0160208091040260200160405190810160405280929190818152602001828054611a1990614b49565b8015611a665780601f10611a3b57610100808354040283529160200191611a66565b820191906000526020600020905b815481529060010190602001808311611a4957829003601f168201915b5050505050815260200160018201548152602001600282015481526020016003820154815260200160048201548152602001600582015481526020016006820160009054906101000a900473ffffffffffffffffffffffffffffffffffffffff1673ffffffffffffffffffffffffffffffffffffffff1673ffffffffffffffffffffffffffffffffffffffff168152602001600782015481526020016008820154815260200160098201805480602002602001604051908101604052809291908181526020018280548015611b9057602002820191906000526020600020905b8160009054906101000a900473ffffffffffffffffffffffffffffffffffffffff1673ffffffffffffffffffffffffffffffffffffffff1681526020019060010190808311611b46575b50505050508152602001600a8201805480602002602001604051908101604052809291908181526020018280548015611be857602002820191906000526020600020905b815481526020019060010190808311611bd4575b50505050508152505090508a816000015182602001518360400151846060015185608001518660a001518760c001518860e001518961010001519a509a509a509a509a509a509a509a509a509a5050611e81565b600060cd60008d81526020019081526020016000206040518060e0016040529081600082018054611c6c90614b49565b80601f0160208091040260200160405190810160405280929190818152602001828054611c9890614b49565b8015611ce55780601f10611cba57610100808354040283529160200191611ce5565b820191906000526020600020905b815481529060010190602001808311611cc857829003601f168201915b5050505050815260200160018201548152602001600282015481526020016003820160009054906101000a900473ffffffffffffffffffffffffffffffffffffffff1673ffffffffffffffffffffffffffffffffffffffff1673ffffffffffffffffffffffffffffffffffffffff1681526020016004820154815260200160058201805480602002602001604051908101604052809291908181526020018280548015611de757602002820191906000526020600020905b8160009054906101000a900473ffffffffffffffffffffffffffffffffffffffff1673ffffffffffffffffffffffffffffffffffffffff1681526020019060010190808311611d9d575b5050505050815260200160068201805480602002602001604051908101604052809291908181526020018280548015611e3f57602002820191906000526020600020905b815481526020019060010190808311611e2b575b50505050508152505090508a81600001518260200151836040015160008060008760600151886080015160009a509a509a509a509a509a509a509a509a509a50505b9193959799509193959799565b60008060019054906101000a900460ff16159050808015611ebf5750600160008054906101000a900460ff1660ff16105b80611eec5750611ece306130f4565b158015611eeb5750600160008054906101000a900460ff1660ff16145b5b611f2b576040517f08c379a0000000000000000000000000000000000000000000000000000000008152600401611f229061542f565b60405180910390fd5b60016000806101000a81548160ff021916908360ff1602179055508015611f68576001600060016101000a81548160ff0219169083151502179055505b60cb60149054906101000a900460ff1615611fb8576040517f08c379a0000000000000000000000000000000000000000000000000000000008152600401611faf906154c1565b60405180910390fd5b611fc0613117565b611fc8613170565b8260c99081611fd79190614d26565b50611fec6000801b611fe7612c5d565b6131c1565b61201d7f64ed6499e2f5a7ea55dfd56da361bf9d48064843bb3891c36f1dabd9ba246135612018612c5d565b6131c1565b8160cb60006101000a81548173ffffffffffffffffffffffffffffffffffffffff021916908373ffffffffffffffffffffffffffffffffffffffff160217905550600160cb60146101000a81548160ff02191690831515021790555080156120d25760008060016101000a81548160ff0219169083151502179055507f7f26b83ff96e1f2b6a682f133852f6798a09c465da95921460cefb384740249860016040516120c99190615529565b60405180910390a15b505050565b60006097600084815260200190815260200160002060000160008373ffffffffffffffffffffffffffffffffffffffff1673ffffffffffffffffffffffffffffffffffffffff16815260200190815260200160002060009054906101000a900460ff16905092915050565b600260015403612187576040517f08c379a000000000000000000000000000000000000000000000000000000000815260040161217e90614572565b60405180910390fd5b6002600181905550600060d1600083815260200190815260200160002060006121ae612c5d565b73ffffffffffffffffffffffffffffffffffffffff1673ffffffffffffffffffffffffffffffffffffffff16815260200190815260200160002090504260ce60008481526020019081526020016000206005015410612242576040517f08c379a0000000000000000000000000000000000000000000000000000000008152600401612239906155b6565b60405180910390fd5b600061225583612250612c5d565b6125b2565b9050600082600201548261226991906149cd565b9050600082116122ae576040517f08c379a00000000000000000000000000000000000000000000000000000000081526004016122a590615160565b60405180910390fd5b6123166122b9612c5d565b8360ce600088815260200190815260200160002060060160009054906101000a900473ffffffffffffffffffffffffffffffffffffffff1673ffffffffffffffffffffffffffffffffffffffff1661306e9092919063ffffffff16565b60008184600101546123289190614999565b905081846002018190555080846004018190555042846006018190555061234d612c5d565b73ffffffffffffffffffffffffffffffffffffffff16857fe17a4e28c1e671d625028150b4ebb254cb9bab36831d7ad13f442c63bc336e728584604051612395929190615180565b60405180910390a3505050506001808190555050565b60cf602052816000526040600020602052806000526040600020600091509150508060000154908060010154908060020154908060030154908060040154905085565b600080600060cf600086815260200190815260200160002060008573ffffffffffffffffffffffffffffffffffffffff1673ffffffffffffffffffffffffffffffffffffffff1681526020019081526020016000206040518060a001604052908160008201548152602001600182015481526020016002820154815260200160038201548152602001600482015481525050905060008160000151116124c9576040517f08c379a00000000000000000000000000000000000000000000000000000000081526004016124c090615648565b60405180910390fd5b4260cd6000878152602001908152602001600020600101541015612557574260cd60008781526020019081526020016000206002015410156125115780604001519150612552565b4260cd60008781526020019081526020016000206002015411156125515780608001518160600151426125449190614999565b61254e9190614a30565b91505b5b61255c565b600091505b819250505092915050565b6000801b81565b7f64ed6499e2f5a7ea55dfd56da361bf9d48064843bb3891c36f1dabd9ba24613581565b60d26020528060005260406000206000915054906101000a900460ff1681565b600080600060d1600086815260200190815260200160002060008573ffffffffffffffffffffffffffffffffffffffff1673ffffffffffffffffffffffffffffffffffffffff1681526020019081526020016000206040518060e0016040529081600082015481526020016001820154815260200160028201548152602001600382015481526020016004820154815260200160058201548152602001600682015481525050905060008160000151116126a1576040517f08c379a000000000000000000000000000000000000000000000000000000000815260040161269890615648565b60405180910390fd5b4260ce6000878152602001908152602001600020600501541161270f574260ce6000878152602001908152602001600020600401541115612702578060a001518160c00151426126f19190614999565b6126fb9190614a30565b915061270a565b806080015191505b612714565b600091505b819250505092915050565b61272882610f45565b61273181612e97565b61273b8383612f8c565b505050565b60c9805461274d90614b49565b80601f016020809104026020016040519081016040528092919081815260200182805461277990614b49565b80156127c65780601f1061279b576101008083540402835291602001916127c6565b820191906000526020600020905b8154815290600101906020018083116127a957829003601f168201915b505050505081565b600080600060d0600086815260200190815260200160002060008573ffffffffffffffffffffffffffffffffffffffff1673ffffffffffffffffffffffffffffffffffffffff1681526020019081526020016000206040518060e0016040529081600082015481526020016001820154815260200160028201548152602001600382015481526020016004820154815260200160058201548152602001600682015481525050905060008160000151116128bd576040517f08c379a00000000000000000000000000000000000000000000000000000000081526004016128b490615648565b60405180910390fd5b4260ce6000878152602001908152602001600020600501541161292b574260ce600087815260200190815260200160002060030154111561291e578060a001518160c001514261290d9190614999565b6129179190614a30565b9150612926565b806080015191505b612930565b600091505b819250505092915050565b60d0602052816000526040600020602052806000526040600020600091509150508060000154908060010154908060020154908060030154908060040154908060050154908060060154905087565b6002600154036129cf576040517f08c379a00000000000000000000000000000000000000000000000000000000081526004016129c690614572565b60405180910390fd5b6002600181905550600060d0600083815260200190815260200160002060006129f6612c5d565b73ffffffffffffffffffffffffffffffffffffffff1673ffffffffffffffffffffffffffffffffffffffff16815260200190815260200160002090504260ce60008481526020019081526020016000206005015410612a8a576040517f08c379a0000000000000000000000000000000000000000000000000000000008152600401612a81906155b6565b60405180910390fd5b6000612a9d83612a98612c5d565b6127ce565b905060008111612ae2576040517f08c379a0000000000000000000000000000000000000000000000000000000008152600401612ad990615160565b60405180910390fd5b612b4a612aed612c5d565b8260ce600087815260200190815260200160002060060160009054906101000a900473ffffffffffffffffffffffffffffffffffffffff1673ffffffffffffffffffffffffffffffffffffffff1661306e9092919063ffffffff16565b6000826002015482612b5c91906149cd565b90506000818460010154612b709190614999565b9050818460020181905550808460040181905550428460060181905550612b95612c5d565b73ffffffffffffffffffffffffffffffffffffffff16857f8c03c732a4b999acfceb5e117a809006980fc5a765e10c915b886aa5356ed3808584604051612bdd929190615180565b60405180910390a3505050506001808190555050565b60007f01ffc9a7000000000000000000000000000000000000000000000000000000007bffffffffffffffffffffffffffffffffffffffffffffffffffffffff1916827bffffffffffffffffffffffffffffffffffffffffffffffffffffffff1916149050919050565b600033905090565b612ce8846323b872dd60e01b858585604051602401612c8693929190615668565b604051602081830303815290604052907bffffffffffffffffffffffffffffffffffffffffffffffffffffffff19166020820180517bffffffffffffffffffffffffffffffffffffffffffffffffffffffff83818316178352505050506131cf565b50505050565b6000806040518060400160405280601c81526020017f19457468657265756d205369676e6564204d6573736167653a0a3332000000008152509050600085858546604051602001612d42949392919061578b565b60405160208183030381529060405280519060200120905080925050509392505050565b60008060006041845114612daf576040517f08c379a0000000000000000000000000000000000000000000000000000000008152600401612da69061581d565b60405180910390fd5b6020840151925060408401519150606084015160001a90509193909250565b6000806040518060400160405280601c81526020017f19457468657265756d205369676e6564204d6573736167653a0a333200000000815250905060008187604051602001612e1e92919061585e565b604051602081830303815290604052805190602001209050600060018288888860405160008152602001604052604051612e5b9493929190615895565b6020604051602081039080840390855afa158015612e7d573d6000803e3d6000fd5b505050602060405103519050809350505050949350505050565b612ea881612ea3612c5d565b613296565b50565b612eb582826120d7565b612f885760016097600084815260200190815260200160002060000160008373ffffffffffffffffffffffffffffffffffffffff1673ffffffffffffffffffffffffffffffffffffffff16815260200190815260200160002060006101000a81548160ff021916908315150217905550612f2d612c5d565b73ffffffffffffffffffffffffffffffffffffffff168173ffffffffffffffffffffffffffffffffffffffff16837f2f8788117e7eff1d82e926ec794901d17c78024a50270940304540a733656f0d60405160405180910390a45b5050565b612f9682826120d7565b1561306a5760006097600084815260200190815260200160002060000160008373ffffffffffffffffffffffffffffffffffffffff1673ffffffffffffffffffffffffffffffffffffffff16815260200190815260200160002060006101000a81548160ff02191690831515021790555061300f612c5d565b73ffffffffffffffffffffffffffffffffffffffff168173ffffffffffffffffffffffffffffffffffffffff16837ff6391f5c32d9c69d2a47ea670b442974b53935d1edc7fd64eb21e047a839171b60405160405180910390a45b5050565b6130ef8363a9059cbb60e01b848460405160240161308d9291906158da565b604051602081830303815290604052907bffffffffffffffffffffffffffffffffffffffffffffffffffffffff19166020820180517bffffffffffffffffffffffffffffffffffffffffffffffffffffffff83818316178352505050506131cf565b505050565b6000808273ffffffffffffffffffffffffffffffffffffffff163b119050919050565b600060019054906101000a900460ff16613166576040517f08c379a000000000000000000000000000000000000000000000000000000000815260040161315d90615975565b60405180910390fd5b61316e613333565b565b600060019054906101000a900460ff166131bf576040517f08c379a00000000000000000000000000000000000000000000000000000000081526004016131b690615975565b60405180910390fd5b565b6131cb8282612eab565b5050565b6000613231826040518060400160405280602081526020017f5361666545524332303a206c6f772d6c6576656c2063616c6c206661696c65648152508573ffffffffffffffffffffffffffffffffffffffff1661338b9092919063ffffffff16565b9050600081511115613291578080602001905181019061325191906159c1565b613290576040517f08c379a000000000000000000000000000000000000000000000000000000000815260040161328790615a60565b60405180910390fd5b5b505050565b6132a082826120d7565b61332f576132c58173ffffffffffffffffffffffffffffffffffffffff1660146133a3565b6132d38360001c60206133a3565b6040516020016132e4929190615b18565b6040516020818303038152906040526040517f08c379a00000000000000000000000000000000000000000000000000000000081526004016133269190614472565b60405180910390fd5b5050565b600060019054906101000a900460ff16613382576040517f08c379a000000000000000000000000000000000000000000000000000000000815260040161337990615975565b60405180910390fd5b60018081905550565b606061339a84846000856135df565b90509392505050565b6060600060028360026133b69190614a30565b6133c091906149cd565b67ffffffffffffffff8111156133d9576133d8613938565b5b6040519080825280601f01601f19166020018201604052801561340b5781602001600182028036833780820191505090505b5090507f30000000000000000000000000000000000000000000000000000000000000008160008151811061344357613442614a01565b5b60200101907effffffffffffffffffffffffffffffffffffffffffffffffffffffffffffff1916908160001a9053507f7800000000000000000000000000000000000000000000000000000000000000816001815181106134a7576134a6614a01565b5b60200101907effffffffffffffffffffffffffffffffffffffffffffffffffffffffffffff1916908160001a905350600060018460026134e79190614a30565b6134f191906149cd565b90505b6001811115613591577f3031323334353637383961626364656600000000000000000000000000000000600f86166010811061353357613532614a01565b5b1a60f81b82828151811061354a57613549614a01565b5b60200101907effffffffffffffffffffffffffffffffffffffffffffffffffffffffffffff1916908160001a905350600485901c94508061358a90615b52565b90506134f4565b50600084146135d5576040517f08c379a00000000000000000000000000000000000000000000000000000000081526004016135cc90615bc7565b60405180910390fd5b8091505092915050565b606082471015613624576040517f08c379a000000000000000000000000000000000000000000000000000000000815260040161361b90615c59565b60405180910390fd5b61362d856130f4565b61366c576040517f08c379a000000000000000000000000000000000000000000000000000000000815260040161366390615cc5565b60405180910390fd5b6000808673ffffffffffffffffffffffffffffffffffffffff1685876040516136959190615ce5565b60006040518083038185875af1925050503d80600081146136d2576040519150601f19603f3d011682016040523d82523d6000602084013e6136d7565b606091505b50915091506136e78282866136f3565b92505050949350505050565b6060831561370357829050613753565b6000835111156137165782518084602001fd5b816040517f08c379a000000000000000000000000000000000000000000000000000000000815260040161374a9190614472565b60405180910390fd5b9392505050565b8280548282559060005260206000209081019282156137d3579160200282015b828111156137d25782518260006101000a81548173ffffffffffffffffffffffffffffffffffffffff021916908373ffffffffffffffffffffffffffffffffffffffff1602179055509160200191906001019061377a565b5b5090506137e09190613831565b5090565b828054828255906000526020600020908101928215613820579160200282015b8281111561381f578251825591602001919060010190613804565b5b50905061382d9190613831565b5090565b5b8082111561384a576000816000905550600101613832565b5090565b6000604051905090565b600080fd5b600080fd5b60007fffffffff0000000000000000000000000000000000000000000000000000000082169050919050565b61389781613862565b81146138a257600080fd5b50565b6000813590506138b48161388e565b92915050565b6000602082840312156138d0576138cf613858565b5b60006138de848285016138a5565b91505092915050565b60008115159050919050565b6138fc816138e7565b82525050565b600060208201905061391760008301846138f3565b92915050565b600080fd5b600080fd5b6000601f19601f8301169050919050565b7f4e487b7100000000000000000000000000000000000000000000000000000000600052604160045260246000fd5b61397082613927565b810181811067ffffffffffffffff8211171561398f5761398e613938565b5b80604052505050565b60006139a261384e565b90506139ae8282613967565b919050565b600067ffffffffffffffff8211156139ce576139cd613938565b5b6139d782613927565b9050602081019050919050565b82818337600083830152505050565b6000613a06613a01846139b3565b613998565b905082815260208101848484011115613a2257613a21613922565b5b613a2d8482856139e4565b509392505050565b600082601f830112613a4a57613a4961391d565b5b8135613a5a8482602086016139f3565b91505092915050565b6000819050919050565b613a7681613a63565b8114613a8157600080fd5b50565b600081359050613a9381613a6d565b92915050565b600073ffffffffffffffffffffffffffffffffffffffff82169050919050565b6000613ac482613a99565b9050919050565b613ad481613ab9565b8114613adf57600080fd5b50565b600081359050613af181613acb565b92915050565b600067ffffffffffffffff821115613b1257613b11613938565b5b602082029050602081019050919050565b600080fd5b6000613b3b613b3684613af7565b613998565b90508083825260208201905060208402830185811115613b5e57613b5d613b23565b5b835b81811015613b875780613b738882613ae2565b845260208401935050602081019050613b60565b5050509392505050565b600082601f830112613ba657613ba561391d565b5b8135613bb6848260208601613b28565b91505092915050565b600067ffffffffffffffff821115613bda57613bd9613938565b5b602082029050602081019050919050565b6000613bfe613bf984613bbf565b613998565b90508083825260208201905060208402830185811115613c2157613c20613b23565b5b835b81811015613c4a5780613c368882613a84565b845260208401935050602081019050613c23565b5050509392505050565b600082601f830112613c6957613c6861391d565b5b8135613c79848260208601613beb565b91505092915050565b600067ffffffffffffffff821115613c9d57613c9c613938565b5b613ca682613927565b9050602081019050919050565b6000613cc6613cc184613c82565b613998565b905082815260208101848484011115613ce257613ce1613922565b5b613ced8482856139e4565b509392505050565b600082601f830112613d0a57613d0961391d565b5b8135613d1a848260208601613cb3565b91505092915050565b6000806000806000806000806000806101408b8d031215613d4757613d46613858565b5b60008b013567ffffffffffffffff811115613d6557613d6461385d565b5b613d718d828e01613a35565b9a50506020613d828d828e01613a84565b9950506040613d938d828e01613a84565b9850506060613da48d828e01613a84565b9750506080613db58d828e01613ae2565b96505060a0613dc68d828e01613a84565b95505060c08b013567ffffffffffffffff811115613de757613de661385d565b5b613df38d828e01613b91565b94505060e08b013567ffffffffffffffff811115613e1457613e1361385d565b5b613e208d828e01613c54565b9350506101008b013567ffffffffffffffff811115613e4257613e4161385d565b5b613e4e8d828e01613cf5565b9250506101208b013567ffffffffffffffff811115613e7057613e6f61385d565b5b613e7c8d828e01613cf5565b9150509295989b9194979a5092959850565b613e9781613ab9565b82525050565b6000602082019050613eb26000830184613e8e565b92915050565b6000819050919050565b613ecb81613eb8565b8114613ed657600080fd5b50565b600081359050613ee881613ec2565b92915050565b600060208284031215613f0457613f03613858565b5b6000613f1284828501613ed9565b91505092915050565b613f2481613eb8565b82525050565b6000602082019050613f3f6000830184613f1b565b92915050565b60008060008060808587031215613f5f57613f5e613858565b5b600085013567ffffffffffffffff811115613f7d57613f7c61385d565b5b613f8987828801613cf5565b945050602085013567ffffffffffffffff811115613faa57613fa961385d565b5b613fb687828801613a35565b9350506040613fc787828801613ae2565b925050606085013567ffffffffffffffff811115613fe857613fe761385d565b5b613ff487828801613cf5565b91505092959194509250565b6000806040838503121561401757614016613858565b5b600061402585828601613ed9565b925050602061403685828601613ae2565b9150509250929050565b60006020828403121561405657614055613858565b5b600061406484828501613a84565b91505092915050565b600080600080600080600060e0888a03121561408c5761408b613858565b5b600088013567ffffffffffffffff8111156140aa576140a961385d565b5b6140b68a828b01613a35565b97505060206140c78a828b01613a84565b96505060406140d88a828b01613ae2565b955050606088013567ffffffffffffffff8111156140f9576140f861385d565b5b6141058a828b01613b91565b945050608088013567ffffffffffffffff8111156141265761412561385d565b5b6141328a828b01613c54565b93505060a088013567ffffffffffffffff8111156141535761415261385d565b5b61415f8a828b01613cf5565b92505060c088013567ffffffffffffffff8111156141805761417f61385d565b5b61418c8a828b01613cf5565b91505092959891949750929550565b6141a481613a63565b82525050565b60006020820190506141bf600083018461419b565b92915050565b600080604083850312156141dc576141db613858565b5b60006141ea85828601613a84565b92505060206141fb85828601613ae2565b9150509250929050565b600060e08201905061421a600083018a61419b565b614227602083018961419b565b614234604083018861419b565b614241606083018761419b565b61424e608083018661419b565b61425b60a083018561419b565b61426860c083018461419b565b98975050505050505050565b60006020828403121561428a57614289613858565b5b600061429884828501613ae2565b91505092915050565b600081519050919050565b600082825260208201905092915050565b60005b838110156142db5780820151818401526020810190506142c0565b60008484015250505050565b60006142f2826142a1565b6142fc81856142ac565b935061430c8185602086016142bd565b61431581613927565b840191505092915050565b600061014082019050614336600083018d6138f3565b8181036020830152614348818c6142e7565b9050614357604083018b61419b565b614364606083018a61419b565b614371608083018961419b565b61437e60a083018861419b565b61438b60c083018761419b565b61439860e0830186613e8e565b6143a661010083018561419b565b6143b461012083018461419b565b9b9a5050505050505050505050565b600080604083850312156143da576143d9613858565b5b600083013567ffffffffffffffff8111156143f8576143f761385d565b5b61440485828601613a35565b925050602061441585828601613ae2565b9150509250929050565b600060a082019050614434600083018861419b565b614441602083018761419b565b61444e604083018661419b565b61445b606083018561419b565b614468608083018461419b565b9695505050505050565b6000602082019050818103600083015261448c81846142e7565b905092915050565b7f41636365737344656e6965643a204f6e6c79205665737465722043616c6c205460008201527f6869732046756e6374696f6e0000000000000000000000000000000000000000602082015250565b60006144f0602c836142ac565b91506144fb82614494565b604082019050919050565b6000602082019050818103600083015261451f816144e3565b9050919050565b7f5265656e7472616e637947756172643a207265656e7472616e742063616c6c00600082015250565b600061455c601f836142ac565b915061456782614526565b602082019050919050565b6000602082019050818103600083015261458b8161454f565b9050919050565b7f4949726f6e566573743a204949726f6e566573742054696d65204d757374204260008201527f652047726561746572205468616e2043757272656e742054696d650000000000602082015250565b60006145ee603b836142ac565b91506145f982614592565b604082019050919050565b6000602082019050818103600083015261461d816145e1565b9050919050565b7f4949726f6e566573743a20436c6966662056657374696e672054696d65204d7560008201527f7374204265204c6573736572205468616e204949726f6e566573742054696d65602082015250565b60006146806040836142ac565b915061468b82614624565b604082019050919050565b600060208201905081810360008301526146af81614673565b9050919050565b7f4949726f6e566573743a20436c6966662056657374696e672054696d65204d7560008201527f73742042652047726561746572205468616e20436c69666620506572696f6400602082015250565b6000614712603f836142ac565b915061471d826146b6565b604082019050919050565b6000602082019050818103600083015261474181614705565b9050919050565b7f4949726f6e566573743a20436c69666620506572696f642054696d65204d757360008201527f742042652047726561746572205468616e2043757272656e742054696d650000602082015250565b60006147a4603e836142ac565b91506147af82614748565b604082019050919050565b600060208201905081810360008301526147d381614797565b9050919050565b7f5369676e65723a20496e76616c6964207369676e657200000000000000000000600082015250565b60006148106016836142ac565b915061481b826147da565b602082019050919050565b6000602082019050818103600083015261483f81614803565b9050919050565b7f50657263656e746167653a50657263656e746167652053686f756c642042652060008201527f6c657373205468616e2020353025000000000000000000000000000000000000602082015250565b60006148a2602e836142ac565b91506148ad82614846565b604082019050919050565b600060208201905081810360008301526148d181614895565b9050919050565b7f50657263656e746167653a50657263656e746167652053686f756c642042652060008201527f4d6f7265205468616e2020302e35250000000000000000000000000000000000602082015250565b6000614934602f836142ac565b915061493f826148d8565b604082019050919050565b6000602082019050818103600083015261496381614927565b9050919050565b7f4e487b7100000000000000000000000000000000000000000000000000000000600052601160045260246000fd5b60006149a482613a63565b91506149af83613a63565b92508282039050818111156149c7576149c661496a565b5b92915050565b60006149d882613a63565b91506149e383613a63565b92508282019050808211156149fb576149fa61496a565b5b92915050565b7f4e487b7100000000000000000000000000000000000000000000000000000000600052603260045260246000fd5b6000614a3b82613a63565b9150614a4683613a63565b9250828202614a5481613a63565b91508282048414831517614a6b57614a6a61496a565b5b5092915050565b7f4e487b7100000000000000000000000000000000000000000000000000000000600052601260045260246000fd5b6000614aac82613a63565b9150614ab783613a63565b925082614ac757614ac6614a72565b5b828204905092915050565b6000614add82613a63565b91507fffffffffffffffffffffffffffffffffffffffffffffffffffffffffffffffff8203614b0f57614b0e61496a565b5b600182019050919050565b7f4e487b7100000000000000000000000000000000000000000000000000000000600052602260045260246000fd5b60006002820490506001821680614b6157607f821691505b602082108103614b7457614b73614b1a565b5b50919050565b60008190508160005260206000209050919050565b60006020601f8301049050919050565b600082821b905092915050565b600060088302614bdc7fffffffffffffffffffffffffffffffffffffffffffffffffffffffffffffffff82614b9f565b614be68683614b9f565b95508019841693508086168417925050509392505050565b6000819050919050565b6000614c23614c1e614c1984613a63565b614bfe565b613a63565b9050919050565b6000819050919050565b614c3d83614c08565b614c51614c4982614c2a565b848454614bac565b825550505050565b600090565b614c66614c59565b614c71818484614c34565b505050565b5b81811015614c9557614c8a600082614c5e565b600181019050614c77565b5050565b601f821115614cda57614cab81614b7a565b614cb484614b8f565b81016020851015614cc3578190505b614cd7614ccf85614b8f565b830182614c76565b50505b505050565b600082821c905092915050565b6000614cfd60001984600802614cdf565b1980831691505092915050565b6000614d168383614cec565b9150826002028217905092915050565b614d2f826142a1565b67ffffffffffffffff811115614d4857614d47613938565b5b614d528254614b49565b614d5d828285614c99565b600060209050601f831160018114614d905760008415614d7e578287015190505b614d888582614d0a565b865550614df0565b601f198416614d9e86614b7a565b60005b82811015614dc657848901518255600182019150602085019450602081019050614da1565b86831015614de35784890151614ddf601f891682614cec565b8355505b6001600288020188555050505b505050505050565b600081519050919050565b600082825260208201905092915050565b6000819050602082019050919050565b614e2d81613ab9565b82525050565b6000614e3f8383614e24565b60208301905092915050565b6000602082019050919050565b6000614e6382614df8565b614e6d8185614e03565b9350614e7883614e14565b8060005b83811015614ea9578151614e908882614e33565b9750614e9b83614e4b565b925050600181019050614e7c565b5085935050505092915050565b600081519050919050565b600082825260208201905092915050565b6000819050602082019050919050565b614eeb81613a63565b82525050565b6000614efd8383614ee2565b60208301905092915050565b6000602082019050919050565b6000614f2182614eb6565b614f2b8185614ec1565b9350614f3683614ed2565b8060005b83811015614f67578151614f4e8882614ef1565b9750614f5983614f09565b925050600181019050614f3a565b5085935050505092915050565b6000610120820190508181036000830152614f8f818c6142e7565b9050614f9e602083018b61419b565b614fab604083018a61419b565b614fb8606083018961419b565b614fc5608083018861419b565b614fd260a0830187613e8e565b614fdf60c083018661419b565b81810360e0830152614ff18185614e58565b90508181036101008301526150068184614f16565b90509a9950505050505050505050565b7f4d65737361676520616c72656164792075736564000000000000000000000000600082015250565b600061504c6014836142ac565b915061505782615016565b602082019050919050565b6000602082019050818103600083015261507b8161503f565b9050919050565b7f416363657373436f6e74726f6c3a2063616e206f6e6c792072656e6f756e636560008201527f20726f6c657320666f722073656c660000000000000000000000000000000000602082015250565b60006150de602f836142ac565b91506150e982615082565b604082019050919050565b6000602082019050818103600083015261510d816150d1565b9050919050565b7f4949726f6e566573743a20496e76616c6964205472616e7366657241626c6500600082015250565b600061514a601f836142ac565b915061515582615114565b602082019050919050565b600060208201905081810360008301526151798161513d565b9050919050565b6000604082019050615195600083018561419b565b6151a2602083018461419b565b9392505050565b7f4949726f6e566573743a20496e76616c69642056657374696e672054696d6500600082015250565b60006151df601f836142ac565b91506151ea826151a9565b602082019050919050565b6000602082019050818103600083015261520e816151d2565b9050919050565b600060e082019050818103600083015261522f818a6142e7565b905061523e602083018961419b565b61524b604083018861419b565b6152586060830187613e8e565b615265608083018661419b565b81810360a08301526152778185614e58565b905081810360c083015261528b8184614f16565b905098975050505050505050565b7f41636365737344656e6965643a204f6e6c792041646d696e2043616c6c20546860008201527f69732046756e6374696f6e000000000000000000000000000000000000000000602082015250565b60006152f5602b836142ac565b915061530082615299565b604082019050919050565b60006020820190508181036000830152615324816152e8565b9050919050565b7f496e76616c69643a205369676e6572204164647265737320497320496e76616c60008201527f6964000000000000000000000000000000000000000000000000000000000000602082015250565b60006153876022836142ac565b91506153928261532b565b604082019050919050565b600060208201905081810360008301526153b68161537a565b9050919050565b7f496e697469616c697a61626c653a20636f6e747261637420697320616c72656160008201527f647920696e697469616c697a6564000000000000000000000000000000000000602082015250565b6000615419602e836142ac565b9150615424826153bd565b604082019050919050565b600060208201905081810360008301526154488161540c565b9050919050565b7f436f6e747261637420696e7374616e63652068617320616c726561647920626560008201527f656e20696e697469616c697a6564000000000000000000000000000000000000602082015250565b60006154ab602e836142ac565b91506154b68261544f565b604082019050919050565b600060208201905081810360008301526154da8161549e565b9050919050565b6000819050919050565b600060ff82169050919050565b600061551361550e615509846154e1565b614bfe565b6154eb565b9050919050565b615523816154f8565b82525050565b600060208201905061553e600083018461551a565b92915050565b7f4949726f6e566573743a20436c69666620506572696f64204973204e6f74204f60008201527f7665722059657400000000000000000000000000000000000000000000000000602082015250565b60006155a06027836142ac565b91506155ab82615544565b604082019050919050565b600060208201905081810360008301526155cf81615593565b9050919050565b7f416c6c6f636174696f6e3a20596f7520446f6e2774206861766520616c6c6f6360008201527f6174696f6e20696e207468697320706f6f6c0000000000000000000000000000602082015250565b60006156326032836142ac565b915061563d826155d6565b604082019050919050565b6000602082019050818103600083015261566181615625565b9050919050565b600060608201905061567d6000830186613e8e565b61568a6020830185613e8e565b615697604083018461419b565b949350505050565b600081905092915050565b60006156b5826142a1565b6156bf818561569f565b93506156cf8185602086016142bd565b80840191505092915050565b60008160601b9050919050565b60006156f3826156db565b9050919050565b6000615705826156e8565b9050919050565b61571d61571882613ab9565b6156fa565b82525050565b600081519050919050565b600081905092915050565b600061574482615723565b61574e818561572e565b935061575e8185602086016142bd565b80840191505092915050565b6000819050919050565b61578561578082613a63565b61576a565b82525050565b600061579782876156aa565b91506157a3828661570c565b6014820191506157b38285615739565b91506157bf8284615774565b60208201915081905095945050505050565b7f696e76616c6964207369676e6174757265206c656e6774680000000000000000600082015250565b60006158076018836142ac565b9150615812826157d1565b602082019050919050565b60006020820190508181036000830152615836816157fa565b9050919050565b6000819050919050565b61585861585382613eb8565b61583d565b82525050565b600061586a8285615739565b91506158768284615847565b6020820191508190509392505050565b61588f816154eb565b82525050565b60006080820190506158aa6000830187613f1b565b6158b76020830186615886565b6158c46040830185613f1b565b6158d16060830184613f1b565b95945050505050565b60006040820190506158ef6000830185613e8e565b6158fc602083018461419b565b9392505050565b7f496e697469616c697a61626c653a20636f6e7472616374206973206e6f74206960008201527f6e697469616c697a696e67000000000000000000000000000000000000000000602082015250565b600061595f602b836142ac565b915061596a82615903565b604082019050919050565b6000602082019050818103600083015261598e81615952565b9050919050565b61599e816138e7565b81146159a957600080fd5b50565b6000815190506159bb81615995565b92915050565b6000602082840312156159d7576159d6613858565b5b60006159e5848285016159ac565b91505092915050565b7f5361666545524332303a204552433230206f7065726174696f6e20646964206e60008201527f6f74207375636365656400000000000000000000000000000000000000000000602082015250565b6000615a4a602a836142ac565b9150615a55826159ee565b604082019050919050565b60006020820190508181036000830152615a7981615a3d565b9050919050565b7f416363657373436f6e74726f6c3a206163636f756e7420000000000000000000600082015250565b6000615ab660178361569f565b9150615ac182615a80565b601782019050919050565b7f206973206d697373696e6720726f6c6520000000000000000000000000000000600082015250565b6000615b0260118361569f565b9150615b0d82615acc565b601182019050919050565b6000615b2382615aa9565b9150615b2f82856156aa565b9150615b3a82615af5565b9150615b4682846156aa565b91508190509392505050565b6000615b5d82613a63565b915060008203615b7057615b6f61496a565b5b600182039050919050565b7f537472696e67733a20686578206c656e67746820696e73756666696369656e74600082015250565b6000615bb16020836142ac565b9150615bbc82615b7b565b602082019050919050565b60006020820190508181036000830152615be081615ba4565b9050919050565b7f416464726573733a20696e73756666696369656e742062616c616e636520666f60008201527f722063616c6c0000000000000000000000000000000000000000000000000000602082015250565b6000615c436026836142ac565b9150615c4e82615be7565b604082019050919050565b60006020820190508181036000830152615c7281615c36565b9050919050565b7f416464726573733a2063616c6c20746f206e6f6e2d636f6e7472616374000000600082015250565b6000615caf601d836142ac565b9150615cba82615c79565b602082019050919050565b60006020820190508181036000830152615cde81615ca2565b9050919050565b6000615cf18284615739565b91508190509291505056fea26469706673582212202f2b02e6d581fac8fb8815a70d738c3c776ba474c019bbd67f7f736c95376e7564736f6c63430008110033",
  "immutableReferences": {},
  "source": "// SPDX-License-Identifier: MIT\npragma solidity ^0.8.17;\n\nimport \"@openzeppelin/contracts-upgradeable/token/ERC20/IERC20Upgradeable.sol\";\nimport \"@openzeppelin/contracts-upgradeable/access/AccessControlUpgradeable.sol\";\nimport \"@openzeppelin/contracts-upgradeable/token/ERC20/utils/SafeERC20Upgradeable.sol\";\nimport \"@openzeppelin/contracts-upgradeable/proxy/utils/Initializable.sol\";\nimport \"@openzeppelin/contracts-upgradeable/security/ReentrancyGuardUpgradeable.sol\";\n\n    /* \n    @author The ferrum network.\n    @title This is a vesting contract named as IronVest.\n    @dev This contract is upgradeable please use a framework i.e truffle or hardhat for deploying it.\n    @notice This contract contains the power of accesscontrol.\n    This contract is used for token vesting.\n    There are two different was defined in the contract with different functionalities.\n    The time management in the contract is in standard epoch time.\n    The add vesting functionalities is secured from replay attach by a specific signature.\n\n    Have fun reading it. Hopefully it's bug-free. God Bless.\n    */\ncontract IronVest is\n  Initializable,\n  ReentrancyGuardUpgradeable,\n  AccessControlUpgradeable\n{\n  //@notice This struct will save all the pool information about simple vesting i.e addVesting().\n  struct PoolInfo {\n    string poolName;\n    uint256 startTime; //block.timestamp while creating new pool.\n    uint256 vestingEndTime; //time stamp when to end the vesting.\n    address tokenAddress; //token which we want to vest in the contract.\n    uint256 totalVestedTokens; //total amount of tokens.\n    address[] usersAddresses; //addresses of users an array.\n    uint256[] usersAlloc; // allocation to user with respect to usersAddresses.\n  }\n\n  //@notice Used to store information about the user in simple vesting.\n  struct UserInfo {\n    uint256 allocation; // total allocation to a user.\n    uint256 claimedAmount; // claimedAmnt + claimed.\n    uint256 remainingToBeClaimable; // remaining claimable fully claimable once time ended.\n    uint256 lastWithdrawal; //block.timestamp used for internal claimable calculation\n    uint256 releaseRatePerSec; // calculated as vestingTime/(vestingTime-starttime)\n  }\n\n  //@notice This struct will save all the pool information about simple vesting i.e addCliffVesting().\n  struct CliffPoolInfo {\n    string poolName;\n    uint256 startTime; //block.timestamp while creating new pool.\n    uint256 vestingEndTime; //total time to end cliff vesting.\n    uint256 cliffVestingEndTime; //time in which user can vest cliff tokens should be less than vestingendtime.\n    uint256 nonCliffVestingEndTime; //calculated as(cliffVestingEndTime-vestingEndTime)+cliffPeriodEndTime.\n    uint256 cliffPeriodEndTime; //in this time tenure the tokens keep locked in contract. a timestamp\n    address tokenAddress; //token which we want to vest in the contract.\n    uint256 totalVestedTokens; //total amount of tokens.\n    uint256 cliffLockPercentage10000; //for percentage calculation using 10000 instead 100.\n    address[] usersAddresses; //addresses of users an array.\n    uint256[] usersAlloc; // allocation to user with respect to usersAddresses.\n  }\n\n  //@notice Used to store information about the user in cliff vesting.\n  struct UserCliffInfo {\n    uint256 allocation; // total allocation cliff+noncliff\n    uint256 cliffAlloc; // (totalallocation*cliffPercentage)/10000\n    uint256 claimedAmnt; // claimedAmnt-claimableClaimed.\n    uint256 tokensReleaseTime; //the time we used to start vesting tokens.\n    uint256 remainingToBeClaimableCliff; // remaining claimable fully claimable once time ended.\n    uint256 cliffReleaseRatePerSec; // calculated as cliffAlloc/(cliffendtime -cliffPeriodendtime).\n    uint256 cliffLastWithdrawal; //block.timestamp used for internal claimable calculation.\n  }\n  struct UserNonCliffInfo {\n    uint256 allocation; // total allocation cliff+noncliff\n    uint256 nonCliffAlloc; // (totalallocation-cliffalloc)\n    uint256 claimedAmnt; // claimedAmnt-claimableClaimed\n    uint256 tokensReleaseTime; // the time we used to start vesting tokens.\n    uint256 remainingToBeClaimableNonCliff; // remaining claimable fully claimable once time ended.\n    uint256 nonCliffReleaseRatePerSec; // calculated as nonCliffAlloc/(cliffVestingEndTime-vestingEndTime).\n    uint256 nonCliffLastWithdrawal; //used for internal claimable calculation.\n  }\n\n  // Declaration of token interface with SafeErc20.\n  using SafeERC20Upgradeable for IERC20Upgradeable;\n  // Public variable to strore contract name.\n  string public vestingContractName;\n  // Unique identity of contract.\n  uint256 public vestingPoolSize;\n  // Signer address. Transaction supposed to be sign be this address.\n  address public signer;\n  // For upgradeable initializer to check if the contract is initilized.\n  bool private initialized;\n  // Vester role initilization.\n  bytes32 public constant VESTER_ROLE = keccak256(\"VESTER_ROLE\");\n\n  // Mappinggs\n  // Cliff mapping with the check if the specific pool relate to the cliff vesting or not.\n  mapping(uint256 => bool) public cliff;\n  // Pool information against specific poolid for simple vesting.\n  mapping(uint256 => PoolInfo) poolInfo;\n  // Pool information against specific poolid for cliff vesting.\n  mapping(uint256 => CliffPoolInfo) cliffPoolInfo;\n  // Double mapping to check user information by address and poolid for cliff vesting.\n  mapping(uint256 => mapping(address => UserInfo)) public userInfo;\n  // Double mapping to check user information by address and poolid for cliff vesting.\n  mapping(uint256 => mapping(address => UserCliffInfo)) public userCliffInfo;\n  // Double mapping to check user information by address and poolid for cliff vesting.\n  mapping(uint256 => mapping(address => UserNonCliffInfo))\n    public userNonCliffInfo;\n  // Hash Information to avoid the replay from same messageHash\n  mapping(bytes32 => bool) public usedHashes;\n\n  /*\n    @dev Creating events for all necessary values while adding simple vesting.\n    @notice vester address and poolId are indexed.\n    */\n  event AddVesting(\n    address indexed vester,\n    uint256 indexed poolId,\n    string poolName,\n    uint256 startTime,\n    uint256 vestingEndTime,\n    address tokenAddress,\n    uint256 totalVestedTokens,\n    address[] usersAddresses,\n    uint256[] usersAlloc\n  );\n\n  /*\n    @dev Creating events for all necessary values while adding cliff vesting.\n    @notice vester address and poolId are indexed.\n    */\n  event CliffAddVesting(\n    address indexed vester,\n    uint256 indexed poolId,\n    string poolName,\n    uint256 vestingEndTime,\n    uint256 cliffVestingEndTime,\n    uint256 nonCliffVestingEndTime,\n    uint256 cliffPeriodEndTime,\n    address tokenAddress,\n    uint256 totalVestedTokens,\n    address[] usersAddresses,\n    uint256[] usersAlloc\n  );\n\n  /*\n    @dev Whenever user claim their amount from simple vesting.\n    @notice beneficiary address and poolId are indexed.\n    */\n  event Claim(\n    uint256 indexed poolId,\n    uint256 claimed,\n    address indexed beneficiary,\n    uint256 remaining\n  );\n\n  /*\n    @dev Whenever user claim their cliff amount from cliff vesting.\n    @notice beneficiary address and poolId are indexed.\n    */\n  event CliffClaim(\n    uint256 indexed poolId,\n    uint256 claimed,\n    address indexed beneficiary,\n    uint256 remaining\n  );\n\n  /*\n    @dev Whenever user claim their non cliff amount from cliff vesting.\n    @notice beneficiary address and poolId are indexed.\n    */\n  event NonCliffClaim(\n    uint256 indexed poolId,\n    uint256 claimed,\n    address indexed beneficiary,\n    uint256 remaining\n  );\n\n  // Modifier to check if vester.\n  modifier onlyVester() {\n    require(\n      hasRole(VESTER_ROLE, _msgSender()),\n      \"AccessDenied: Only Vester Call This Function\"\n    );\n    _;\n  }\n\n  // Modifier to check if default admin.\n  modifier onlyAdmin() {\n    require(\n      hasRole(DEFAULT_ADMIN_ROLE, _msgSender()),\n      \"AccessDenied: Only Admin Call This Function\"\n    );\n    _;\n  }\n\n  /*\n    @dev deploy the contract by upgradeable proxy by any framewrok.\n    @param vesting name and signer address.\n    @notice Contract is upgradeable need initilization and deployer is default admin.\n    */\n  function initialize(string memory _vestingName, address _signer)\n    public\n    initializer\n  {\n    require(!initialized, \"Contract instance has already been initialized\");\n    __ReentrancyGuard_init();\n    __AccessControl_init();\n    vestingContractName = _vestingName;\n    _setupRole(DEFAULT_ADMIN_ROLE, _msgSender());\n    _setupRole(VESTER_ROLE, _msgSender());\n    signer = _signer;\n    initialized = true;\n  }\n\n  /*\n    @dev Only callable by vester.\n    @param Pool name is supposed to be any string.\n    @param Vesting time is tenure in which token will be released.\n    @param Token address related to the vested token.\n    @param Users addresses whom the vester want to allocate tokens and it is an array.\n    @param Users allocation of tokens with respect to address.\n    @param Signature of the signed by signer.\n    @param Specific keyhash value formed to stop replay.\n    @notice Create a new vesting.\n    */\n  function addVesting(\n    string memory _poolName,\n    uint256 _vestingEndTime,\n    address _tokenAddress,\n    address[] memory _usersAddresses,\n    uint256[] memory _userAlloc,\n    bytes memory signature,\n    bytes memory _keyHash\n  ) external onlyVester nonReentrant {\n    require(\n      _vestingEndTime > block.timestamp,\n      \"IIronVest: Invalid Vesting Time\"\n    );\n    require(\n      signatureVerification(signature, _poolName, _tokenAddress, _keyHash) ==\n        signer,\n      \"Signer: Invalid signer\"\n    );\n    uint256 totalVesting;\n    for (uint256 i = 0; i < _usersAddresses.length; i++) {\n      totalVesting += _userAlloc[i];\n      userInfo[vestingPoolSize][_usersAddresses[i]] = UserInfo(\n        _userAlloc[i],\n        0,\n        _userAlloc[i],\n        block.timestamp,\n        _userAlloc[i] / (_vestingEndTime - block.timestamp)\n      );\n    }\n    poolInfo[vestingPoolSize] = PoolInfo(\n      _poolName,\n      block.timestamp,\n      _vestingEndTime,\n      _tokenAddress,\n      totalVesting,\n      _usersAddresses,\n      _userAlloc\n    );\n    IERC20Upgradeable(_tokenAddress).safeTransferFrom(\n      _msgSender(),\n      address(this),\n      totalVesting\n    );\n    cliff[vestingPoolSize] = false;\n    vestingPoolSize = vestingPoolSize + 1;\n    emit AddVesting(\n      _msgSender(),\n      vestingPoolSize,\n      _poolName,\n      block.timestamp,\n      _vestingEndTime,\n      _tokenAddress,\n      totalVesting,\n      _usersAddresses,\n      _userAlloc\n    );\n    usedHashes[messageHash(_poolName, _tokenAddress, _keyHash)] = true;\n  }\n\n  /*\n    @dev User must have allocation in the pool.\n    @notice This is for claiming simple vesting.\n    @param poolId from which pool user want to withdraw.\n    @notice Secured by nonReentrant\n    */\n  function claim(uint256 _poolId) external nonReentrant {\n    uint256 transferAble = claimable(_poolId, _msgSender());\n    require(transferAble > 0, \"IIronVest: Invalid TransferAble\");\n    IERC20Upgradeable(poolInfo[_poolId].tokenAddress).safeTransfer(\n      _msgSender(),\n      transferAble\n    );\n    UserInfo storage info = userInfo[_poolId][_msgSender()];\n    uint256 claimed = (info.claimedAmount + transferAble);\n    uint256 remainingToBeClaimable = info.allocation - claimed;\n    info.claimedAmount = claimed;\n    info.remainingToBeClaimable = remainingToBeClaimable;\n    info.lastWithdrawal = block.timestamp;\n\n    emit Claim(_poolId, transferAble, _msgSender(), remainingToBeClaimable);\n  }\n\n  /*\n    @dev Only callable by vester.\n    @param Pool name is supposed to be any string.\n    @param Vesting time is tenure in which token will be released.\n    @param cliff vesting time is the end time for releasing cliff tokens.\n    @param cliff period is a period in which token will be locked.\n    @param Token address related to the vested token.\n    @param cliff percentage defines how may percentage should be allocated to cliff tokens.\n    @param Users addresses whom the vester want to allocate tokens and it is an array.\n    @param Users allocation of tokens with respect to address.\n    @param Signature of the signed by signer.\n    @param Specific keyhash value formed to stop replay.\n    @notice Create a new vesting with cliff.\n    */\n  function addCliffVesting(\n    string memory _poolName,\n    uint256 _vestingEndTime,\n    uint256 _cliffVestingEndTime,\n    uint256 _cliffPeriodEndTime,\n    address _tokenAddress,\n    uint256 _cliffPercentage10000,\n    address[] memory _usersAddresses,\n    uint256[] memory _userAlloc,\n    bytes memory signature,\n    bytes memory _keyHash\n  ) external onlyVester nonReentrant {\n    require(\n      _vestingEndTime > block.timestamp,\n      \"IIronVest: IIronVest Time Must Be Greater Than Current Time\"\n    );\n    require(\n      _cliffVestingEndTime < _vestingEndTime,\n      \"IIronVest: Cliff Vesting Time Must Be Lesser Than IIronVest Time\"\n    );\n    require(\n      _cliffVestingEndTime > _cliffPeriodEndTime,\n      \"IIronVest: Cliff Vesting Time Must Be Greater Than Cliff Period\"\n    );\n    require(\n      _cliffPeriodEndTime > block.timestamp,\n      \"IIronVest: Cliff Period Time Must Be Greater Than Current Time\"\n    );\n    require(\n      signatureVerification(signature, _poolName, _tokenAddress, _keyHash) ==\n        signer,\n      \"Signer: Invalid signer\"\n    );\n    require(\n      _cliffPercentage10000 <= 5000,\n      \"Percentage:Percentage Should Be less Than  50%\"\n    );\n    require(\n      _cliffPercentage10000 >= 10,\n      \"Percentage:Percentage Should Be More Than  0.5%\"\n    );\n\n    uint256 nonCliffVestingEndTime = (_vestingEndTime - _cliffVestingEndTime) +\n      _cliffPeriodEndTime;\n    uint256 totalVesting;\n    for (uint256 i = 0; i < _usersAddresses.length; i++) {\n      uint256 cliffAlloc = (_userAlloc[i] * _cliffPercentage10000) / 10000;\n      totalVesting += _userAlloc[i];\n      uint256 nonCliffReaminingTobeclaimable = _userAlloc[i] - cliffAlloc;\n      userCliffInfo[vestingPoolSize][_usersAddresses[i]] = UserCliffInfo(\n        _userAlloc[i],\n        cliffAlloc,\n        0,\n        _cliffPeriodEndTime,\n        cliffAlloc,\n        (cliffAlloc) / (_cliffVestingEndTime - _cliffPeriodEndTime),\n        _cliffPeriodEndTime\n      );\n      userNonCliffInfo[vestingPoolSize][_usersAddresses[i]] = UserNonCliffInfo(\n        _userAlloc[i],\n        nonCliffReaminingTobeclaimable,\n        0,\n        _cliffPeriodEndTime,\n        nonCliffReaminingTobeclaimable,\n        (_userAlloc[i] - (cliffAlloc)) /\n          (nonCliffVestingEndTime - _cliffPeriodEndTime),\n        _cliffPeriodEndTime\n      );\n    }\n    cliffPoolInfo[vestingPoolSize] = CliffPoolInfo(\n      _poolName,\n      block.timestamp,\n      _vestingEndTime,\n      _cliffVestingEndTime,\n      (_vestingEndTime - _cliffVestingEndTime) + _cliffPeriodEndTime,\n      _cliffPeriodEndTime,\n      _tokenAddress,\n      totalVesting,\n      _cliffPercentage10000,\n      _usersAddresses,\n      _userAlloc\n    );\n    IERC20Upgradeable(_tokenAddress).safeTransferFrom(\n      _msgSender(),\n      address(this),\n      totalVesting\n    );\n    cliff[vestingPoolSize] = true;\n    vestingPoolSize = vestingPoolSize + 1;\n    emit CliffAddVesting(\n      _msgSender(),\n      vestingPoolSize,\n      _poolName,\n      _vestingEndTime,\n      _cliffVestingEndTime,\n      nonCliffVestingEndTime,\n      _cliffPeriodEndTime,\n      _tokenAddress,\n      totalVesting,\n      _usersAddresses,\n      _userAlloc\n    );\n    usedHashes[messageHash(_poolName, _tokenAddress, _keyHash)] = true;\n  }\n\n  /*\n    @dev User must have allocation in the pool.\n    @notice This is for claiming cliff vesting.\n    @notice should be called if need to claim cliff amount.\n    @param poolId from which pool user want to withdraw.\n    @notice Secured by nonReentrant.\n    */\n  function claimCliff(uint256 _poolId) external nonReentrant {\n    UserCliffInfo storage info = userCliffInfo[_poolId][_msgSender()];\n    require(\n      cliffPoolInfo[_poolId].cliffPeriodEndTime < block.timestamp,\n      \"IIronVest: Cliff Period Is Not Over Yet\"\n    );\n\n    uint256 transferAble = cliffClaimable(_poolId, _msgSender());\n    require(transferAble > 0, \"IIronVest: Invalid TransferAble\");\n    IERC20Upgradeable(cliffPoolInfo[_poolId].tokenAddress).safeTransfer(\n      _msgSender(),\n      transferAble\n    );\n    uint256 claimed = transferAble + info.claimedAmnt;\n    uint256 remainingTobeClaimable = info.cliffAlloc - claimed;\n    info.claimedAmnt = claimed;\n    info.remainingToBeClaimableCliff = remainingTobeClaimable;\n    info.cliffLastWithdrawal = block.timestamp;\n\n    emit CliffClaim(\n      _poolId,\n      transferAble,\n      _msgSender(),\n      remainingTobeClaimable\n    );\n  }\n\n  /*\n    @dev User must have allocation in the pool.\n    @notice This is for claiming cliff vesting.\n    @notice should be called if need to claim non cliff amount.\n    @param poolId from which pool user want to withdraw.\n    @notice Secured by nonReentrant.\n    */\n  function claimNonCliff(uint256 _poolId) external nonReentrant {\n    UserNonCliffInfo storage info = userNonCliffInfo[_poolId][_msgSender()];\n    require(\n      cliffPoolInfo[_poolId].cliffPeriodEndTime < block.timestamp,\n      \"IIronVest: Cliff Period Is Not Over Yet\"\n    );\n\n    uint256 transferAble = nonCliffClaimable(_poolId, _msgSender());\n    uint256 claimed = transferAble + info.claimedAmnt;\n    require(transferAble > 0, \"IIronVest: Invalid TransferAble\");\n    IERC20Upgradeable(cliffPoolInfo[_poolId].tokenAddress).safeTransfer(\n      _msgSender(),\n      transferAble\n    );\n    uint256 remainingTobeClaimable = info.nonCliffAlloc - claimed;\n    info.claimedAmnt = claimed;\n    info.remainingToBeClaimableNonCliff = remainingTobeClaimable;\n    info.nonCliffLastWithdrawal = block.timestamp;\n    emit NonCliffClaim(\n      _poolId,\n      transferAble,\n      _msgSender(),\n      remainingTobeClaimable\n    );\n  }\n\n  /*\n    @dev This is check claimable for simple vesting.\n    @param poolId from which pool user want to check.\n    @param user address for which user want to check claimables.\n    @return returning the claimable amount of the user\n    */\n  function claimable(uint256 _poolId, address _user)\n    public\n    view\n    returns (uint256)\n  {\n    uint256 claimable;\n    UserInfo memory info = userInfo[_poolId][_user];\n    require(\n      info.allocation > 0,\n      \"Allocation: You Don't have allocation in this pool\"\n    );\n    if (poolInfo[_poolId].startTime < block.timestamp) {\n      if (poolInfo[_poolId].vestingEndTime < block.timestamp) {\n        claimable = info.remainingToBeClaimable;\n      } else if (poolInfo[_poolId].vestingEndTime > block.timestamp) {\n        claimable =\n          (block.timestamp - info.lastWithdrawal) *\n          info.releaseRatePerSec;\n      }\n    } else {\n      claimable = 0;\n    }\n    return (claimable);\n  }\n\n  /*\n    @dev This is check claimable for cliff vesting.\n    @param poolId from which pool user want to check.\n    @param user address for which user want to check claimables.\n    @return returning the claimable amount of the user from cliff vesting.\n    */\n  function cliffClaimable(uint256 _poolId, address _user)\n    public\n    view\n    returns (uint256)\n  {\n    uint256 cliffClaimable;\n    UserCliffInfo memory info = userCliffInfo[_poolId][_user];\n    require(\n      info.allocation > 0,\n      \"Allocation: You Don't have allocation in this pool\"\n    );\n\n    if (cliffPoolInfo[_poolId].cliffPeriodEndTime <= block.timestamp) {\n      if (cliffPoolInfo[_poolId].cliffVestingEndTime > block.timestamp) {\n        cliffClaimable =\n          (block.timestamp - info.cliffLastWithdrawal) *\n          info.cliffReleaseRatePerSec;\n      } else cliffClaimable = info.remainingToBeClaimableCliff;\n    } else cliffClaimable = 0;\n\n    return (cliffClaimable);\n  }\n\n  /*\n    @dev This is check claimable for non cliff vesting.\n    @param poolId from which pool user want to check.\n    @param user address for which user want to check claimables.\n    @return returning the claimable amount of the user from non cliff vesting.\n    */\n  function nonCliffClaimable(uint256 _poolId, address _user)\n    public\n    view\n    returns (uint256)\n  {\n    uint256 nonCliffClaimable;\n    UserNonCliffInfo memory info = userNonCliffInfo[_poolId][_user];\n    require(\n      info.allocation > 0,\n      \"Allocation: You Don't have allocation in this pool\"\n    );\n\n    if (cliffPoolInfo[_poolId].cliffPeriodEndTime <= block.timestamp) {\n      if (cliffPoolInfo[_poolId].nonCliffVestingEndTime > block.timestamp) {\n        nonCliffClaimable =\n          (block.timestamp - info.nonCliffLastWithdrawal) *\n          info.nonCliffReleaseRatePerSec;\n      } else nonCliffClaimable = info.remainingToBeClaimableNonCliff;\n    } else nonCliffClaimable = 0;\n\n    return (nonCliffClaimable);\n  }\n\n  /*\n    @dev As we are using poolId as unique ID which is supposed to return pool info i.e\n    poolInfo and cliffPoolInfo but it unique for the contract level this function will \n    return the values from where this poolId relate to.\n    @param _piilId : poolId\n    @return bool : if this Id relate to the cliffPool or note?\n    @return poolName : poolName If exist.\n    @return vestingEndTime : vestingEndTime of this Pool.\n    @return cliffVestingEndTime : cliffVestingEndTime If exist and if also a cliffPool.\n    @return nonCliffVestingEndTime : nonCliffVestingEndTime If exist and also a cliffPool.\n    @return cliffPeriodEndTime : cliffPeriodEndTime If exist and also a cliffPool.\n    @return tokenAddress :  Vested token address If exist.\n    @return totalVestedTokens : totalVestedTokens If exist.\n    @return cliffLockPercentage : cliffLockPercentage If exist and also a cliffPool.\n    */\n  function poolInformation(uint256 _poolId)\n    public\n    view\n    returns (\n      bool isCliff,\n      string memory poolName,\n      uint256 startTime,\n      uint256 vestingEndTime,\n      uint256 cliffVestingEndTime,\n      uint256 nonCliffVestingEndTime,\n      uint256 cliffPeriodEndTime,\n      address tokenAddress,\n      uint256 totalVestedTokens,\n      uint256 cliffLockPercentage\n    )\n  {\n    // bool isCliff = cliff[_poolId];\n    if (cliff[_poolId]) {\n      CliffPoolInfo memory info = cliffPoolInfo[_poolId];\n      return (\n        isCliff,\n        info.poolName,\n        info.startTime,\n        info.vestingEndTime,\n        info.cliffVestingEndTime,\n        info.nonCliffVestingEndTime,\n        info.cliffPeriodEndTime,\n        info.tokenAddress,\n        info.totalVestedTokens,\n        info.cliffLockPercentage10000\n      );\n    } else {\n      PoolInfo memory info = poolInfo[_poolId];\n      return (\n        isCliff,\n        info.poolName,\n        info.startTime,\n        info.vestingEndTime,\n        0,\n        0,\n        0,\n        info.tokenAddress,\n        info.totalVestedTokens,\n        0\n      );\n    }\n  }\n\n  /*\n    @dev Functions is called by a default admin.\n    @param user address whom admin want to be a signer.\n    */\n  function setSigner(address _signer) public onlyAdmin {\n    require(_signer != address(0x00), \"Invalid: Signer Address Is Invalid\");\n    signer = _signer;\n  }\n\n  /*\n    @dev For geting signer address from salt and sgnature.\n    @param signature provided signed by signer.\n    @param poolName to name a pool.\n    @param tokenAddess of our vested tokesn.\n    @param keyhash value to stop replay.\n    @return Address of signer who signed the message hash.\n    */\n  function signatureVerification(\n    bytes memory signature,\n    string memory _poolName,\n    address _tokenAddress,\n    bytes memory _keyHash\n  ) public view returns (address) {\n    bytes32 _salt = messageHash(_poolName, _tokenAddress, _keyHash);\n    (bytes32 r, bytes32 s, uint8 v) = splitSignature(signature);\n    require(!usedHashes[_salt], \"Message already used\");\n\n    address _user = verifyMessage(_salt, v, r, s);\n    return _user;\n  }\n\n  /*\n    @dev For splititng signature.\n    @param sig : signature provided signed by signer\n    @return r: First 32 bytes stores the length of the signature.\n    @return s: add(sig, 32) = pointer of sig + 32\n    effectively, skips first 32 bytes of signature.\n    @return v: mload(p) loads next 32 bytes starting\n    at the memory address p into memory.\n    */\n  function splitSignature(bytes memory sig)\n    internal\n    pure\n    returns (\n      bytes32 r,\n      bytes32 s,\n      uint8 v\n    )\n  {\n    require(sig.length == 65, \"invalid signature length\");\n\n    assembly {\n      /*\n            First 32 bytes stores the length of the signature\n\n            add(sig, 32) = pointer of sig + 32\n            effectively, skips first 32 bytes of signature\n\n            mload(p) loads next 32 bytes starting at the memory address p into memory\n            */\n\n      // first 32 bytes, after the length prefix\n      r := mload(add(sig, 32))\n      // second 32 bytes\n      s := mload(add(sig, 64))\n      // final byte (first byte of the next 32 bytes)\n      v := byte(0, mload(add(sig, 96)))\n    }\n\n    // implicitly return (r, s, v)\n  }\n\n  /*\n    @dev Verify and recover signer from salt and signature.\n    @param r: First 32 bytes stores the length of the signature.\n    @param s: add(sig, 32) = pointer of sig + 32\n    effectively, skips first 32 bytes of signature.\n    @param v: mload(p) loads next 32 bytes starting\n    at the memory address p into memory.\n    @return returning the address of signer.\n    */\n  function verifyMessage(\n    bytes32 _salt,\n    uint8 _v,\n    bytes32 _r,\n    bytes32 _s\n  ) internal pure returns (address) {\n    bytes memory prefix = \"\\x19Ethereum Signed Message:\\n32\";\n    bytes32 prefixedHashMessage = keccak256(abi.encodePacked(prefix, _salt));\n    address _signerAddress = ecrecover(prefixedHashMessage, _v, _r, _s);\n    return _signerAddress;\n  }\n\n  /*\n    @dev create a message hash by concatincating the values.\n    @param pool name.\n    @param tokens address.\n    @param key hash value generated by our backend to stop replay attack.\n    also a chain Id so that a user can't replay the hash any other chain.\n    @return returning keccak hash of concate values.\n    */\n  function messageHash(\n    string memory _poolName,\n    address _tokenAddress,\n    bytes memory _keyHash\n  ) internal view returns (bytes32) {\n    bytes memory prefix = \"\\x19Ethereum Signed Message:\\n32\";\n\n    bytes32 hash = keccak256(\n      abi.encodePacked(_poolName, _tokenAddress, _keyHash, block.chainid)\n    );\n    return hash;\n  }\n  \n}\n",
  "sourcePath": "D:\\IronVesting\\linear-release-engine\\contracts\\IronVest.sol",
  "compiler": {
    "name": "solc",
    "version": "0.8.17+commit.8df45f5f.Emscripten.clang"
  },
  "schemaVersion": "3.4.9",
  "updatedAt": "2022-10-04T15:12:17.591Z",
  "networkType": "ethereum",
  "devdoc": {
    "kind": "dev",
    "methods": {
      "getRoleAdmin(bytes32)": {
        "details": "Returns the admin role that controls `role`. See {grantRole} and {revokeRole}. To change a role's admin, use {_setRoleAdmin}."
      },
      "grantRole(bytes32,address)": {
        "details": "Grants `role` to `account`. If `account` had not been already granted `role`, emits a {RoleGranted} event. Requirements: - the caller must have ``role``'s admin role. May emit a {RoleGranted} event."
      },
      "hasRole(bytes32,address)": {
        "details": "Returns `true` if `account` has been granted `role`."
      },
      "renounceRole(bytes32,address)": {
        "details": "Revokes `role` from the calling account. Roles are often managed via {grantRole} and {revokeRole}: this function's purpose is to provide a mechanism for accounts to lose their privileges if they are compromised (such as when a trusted device is misplaced). If the calling account had been revoked `role`, emits a {RoleRevoked} event. Requirements: - the caller must be `account`. May emit a {RoleRevoked} event."
      },
      "revokeRole(bytes32,address)": {
        "details": "Revokes `role` from `account`. If `account` had been granted `role`, emits a {RoleRevoked} event. Requirements: - the caller must have ``role``'s admin role. May emit a {RoleRevoked} event."
      },
      "supportsInterface(bytes4)": {
        "details": "See {IERC165-supportsInterface}."
      }
    },
    "version": 1
  },
  "userdoc": {
    "kind": "user",
    "methods": {},
    "version": 1
  }
}